:100000000C9452000C9464000C9464000C946400F2
:100010000C9464000C9464000C9464000C946400D0
:100020000C9464000C9464000C9464000C946400C0
:100030000C9464000C9464000C9464000C946400B0
:100040000C9497000C9464000C9464000C9464006D
:100050000C9464000C9464000C9464000C94640090
:100060000C9464000C94640000000000250028003B
:100070002B0000000000240027002A0004040404D0
:100080000404040402020202020203030303030342
:10009000010204081020408001020408102001021F
:1000A0000408102011241FBECFEFD8E0DEBFCDBF63
:1000B00021E0A0E0B1E001C01D92A930B207E1F754
:1000C0000E94E1000C9471010C940000CF93DF9327
:1000D00090E0FC01E057FF4F249184589F4FFC01B2
:1000E00084918823D1F090E0880F991FFC01EE588D
:1000F000FF4FA591B491FC01E859FF4FC591D491F0
:1001000061110EC09FB7F8948C91E22FE0958E2379
:100110008C932881E223E8839FBFDF91CF910895DC
:100120008FB7F894EC91E22BEC938FBFF6CF1F9230
:100130000F920FB60F9211242F933F938F939F939B
:10014000AF93BF938091050190910601A0910701A3
:10015000B09108013091040123E0230F2D3758F5A9
:100160000196A11DB11D2093040180930501909378
:100170000601A0930701B0930801809100019091BE
:100180000101A0910201B09103010196A11DB11DD1
:100190008093000190930101A0930201B0930301A9
:1001A000BF91AF919F918F913F912F910F900FBE73
:1001B0000F901F90189526E8230F0296A11DB11DE0
:1001C000D2CF789484B5826084BD84B5816084BDCB
:1001D00085B5826085BD85B5816085BD80916E00E5
:1001E000816080936E001092810080918100826016
:1001F0008093810080918100816080938100C0E8BC
:10020000D0E0809180008160809380008091B10077
:1002100084608093B1008091B00081608093B000D1
:1002200080917A00846080937A0080917A00826065
:1002300080937A0080917A00816080937A00809127
:100240007A00806880937A001092C10061E089E0B2
:100250000E94660061E08AE00E94660060E08EE035
:100260000E94660061E08BE00E94660061E083E02E
:100270000E94660010928000109281001092B000DF
:100280001092B1001092B20010928500109284007A
:1002900080918000816B80938000809181008160DB
:1002A000809381008091B000816B8093B000809139
:1002B000B10081608093B100D0938900C093880021
:1002C000D0938B00C0938A0080E88093B300809322
:1002D000B4007894C0E0D0E02097F1F30E940000D1
:0602E000FBCFF894FFCFF4
:00000001FF
